{
  "contractName": "ERC721",
  "abi": [
    {
      "inputs": [],
      "stateMutability": "nonpayable",
      "type": "constructor"
    },
    {
      "anonymous": false,
      "inputs": [
        {
          "indexed": true,
          "internalType": "address",
          "name": "_owner",
          "type": "address"
        },
        {
          "indexed": true,
          "internalType": "address",
          "name": "_approved",
          "type": "address"
        },
        {
          "indexed": true,
          "internalType": "uint256",
          "name": "_tokenId",
          "type": "uint256"
        }
      ],
      "name": "Approval",
      "type": "event"
    },
    {
      "anonymous": false,
      "inputs": [
        {
          "indexed": true,
          "internalType": "address",
          "name": "_from",
          "type": "address"
        },
        {
          "indexed": true,
          "internalType": "address",
          "name": "_to",
          "type": "address"
        },
        {
          "indexed": true,
          "internalType": "uint256",
          "name": "_tokenId",
          "type": "uint256"
        }
      ],
      "name": "Transfer",
      "type": "event"
    },
    {
      "inputs": [
        {
          "internalType": "bytes4",
          "name": "interfaceID",
          "type": "bytes4"
        }
      ],
      "name": "supportsInterface",
      "outputs": [
        {
          "internalType": "bool",
          "name": "",
          "type": "bool"
        }
      ],
      "stateMutability": "view",
      "type": "function"
    },
    {
      "inputs": [
        {
          "internalType": "address",
          "name": "_owner",
          "type": "address"
        }
      ],
      "name": "balanceOf",
      "outputs": [
        {
          "internalType": "uint256",
          "name": "",
          "type": "uint256"
        }
      ],
      "stateMutability": "view",
      "type": "function"
    },
    {
      "inputs": [
        {
          "internalType": "uint256",
          "name": "_tokenId",
          "type": "uint256"
        }
      ],
      "name": "ownerOf",
      "outputs": [
        {
          "internalType": "address",
          "name": "",
          "type": "address"
        }
      ],
      "stateMutability": "view",
      "type": "function"
    },
    {
      "inputs": [
        {
          "internalType": "address",
          "name": "_from",
          "type": "address"
        },
        {
          "internalType": "address",
          "name": "_to",
          "type": "address"
        },
        {
          "internalType": "uint256",
          "name": "_tokenId",
          "type": "uint256"
        }
      ],
      "name": "transferFrom",
      "outputs": [],
      "stateMutability": "nonpayable",
      "type": "function"
    },
    {
      "inputs": [
        {
          "internalType": "address",
          "name": "_to",
          "type": "address"
        },
        {
          "internalType": "uint256",
          "name": "tokenId",
          "type": "uint256"
        }
      ],
      "name": "approve",
      "outputs": [],
      "stateMutability": "nonpayable",
      "type": "function"
    }
  ],
  "bytecode": "0x608060405234801561001057600080fd5b506100407f01ffc9a7a5cef8baa21ed3c5c0d7e23accb804b619e9333b597f47a0d84076e26100b860201b60201c565b6100b37f22c82707ba960a14c7592ffb6b8cfaa073fed0048a84cc7fa41f6b5bd8e7f2e47f3a6eb71757dfc6e784c1459d26270140c2c147d95ca985c80026fc5301c3eca17f8a7e378434598edc36d108689a030cbc9d7d465de4f74c71bae1028eed6a881b18186100b860201b60201c565b61020a565b63ffffffff60e01b817bffffffffffffffffffffffffffffffffffffffffffffffffffffffff19161415610121576040517f08c379a0000000000000000000000000000000000000000000000000000000008152600401610118906101ea565b60405180910390fd5b6001600080837bffffffffffffffffffffffffffffffffffffffffffffffffffffffff19167bffffffffffffffffffffffffffffffffffffffffffffffffffffffff1916815260200190815260200160002060006101000a81548160ff02191690831515021790555050565b600082825260208201905092915050565b7f496e76616c696420696e74657266616365207265717565737400000000000000600082015250565b60006101d460198361018d565b91506101df8261019e565b602082019050919050565b60006020820190508181036000830152610203816101c7565b9050919050565b610ed6806102196000396000f3fe608060405234801561001057600080fd5b50600436106100575760003560e01c806301ffc9a71461005c578063095ea7b31461008c57806323b872dd146100a85780636352211e146100c457806370a08231146100f4575b600080fd5b61007660048036038101906100719190610858565b610124565b60405161008391906108a0565b60405180910390f35b6100a660048036038101906100a1919061094f565b61018b565b005b6100c260048036038101906100bd919061098f565b610327565b005b6100de60048036038101906100d991906109e2565b61034a565b6040516100eb9190610a1e565b60405180910390f35b61010e60048036038101906101099190610a39565b6103fc565b60405161011b9190610a75565b60405180910390f35b6000806000837bffffffffffffffffffffffffffffffffffffffffffffffffffffffff19167bffffffffffffffffffffffffffffffffffffffffffffffffffffffff1916815260200190815260200160002060009054906101000a900460ff169050919050565b60006101968261034a565b90508073ffffffffffffffffffffffffffffffffffffffff168373ffffffffffffffffffffffffffffffffffffffff161415610207576040517f08c379a00000000000000000000000000000000000000000000000000000000081526004016101fe90610b13565b60405180910390fd5b8073ffffffffffffffffffffffffffffffffffffffff163373ffffffffffffffffffffffffffffffffffffffff1614610275576040517f08c379a000000000000000000000000000000000000000000000000000000000815260040161026c90610ba5565b60405180910390fd5b826003600084815260200190815260200160002060006101000a81548173ffffffffffffffffffffffffffffffffffffffff021916908373ffffffffffffffffffffffffffffffffffffffff160217905550818373ffffffffffffffffffffffffffffffffffffffff168273ffffffffffffffffffffffffffffffffffffffff167f8c5be1e5ebec7d5bd14f71427d1e84f3dd0314c0f7b2291e5b200ac8c7c3b92560405160405180910390a4505050565b61033133826104b4565b61033a57600080fd5b610345838383610543565b505050565b6000806001600084815260200190815260200160002060009054906101000a900473ffffffffffffffffffffffffffffffffffffffff169050600073ffffffffffffffffffffffffffffffffffffffff168173ffffffffffffffffffffffffffffffffffffffff1614156103f3576040517f08c379a00000000000000000000000000000000000000000000000000000000081526004016103ea90610c37565b60405180910390fd5b80915050919050565b60008073ffffffffffffffffffffffffffffffffffffffff168273ffffffffffffffffffffffffffffffffffffffff16141561046d576040517f08c379a000000000000000000000000000000000000000000000000000000000815260040161046490610c37565b60405180910390fd5b600260008373ffffffffffffffffffffffffffffffffffffffff1673ffffffffffffffffffffffffffffffffffffffff168152602001908152602001600020549050919050565b60006104bf82610789565b6104fe576040517f08c379a00000000000000000000000000000000000000000000000000000000081526004016104f590610ca3565b60405180910390fd5b60006105098361034a565b90508073ffffffffffffffffffffffffffffffffffffffff168473ffffffffffffffffffffffffffffffffffffffff161491505092915050565b600073ffffffffffffffffffffffffffffffffffffffff168273ffffffffffffffffffffffffffffffffffffffff1614156105b3576040517f08c379a00000000000000000000000000000000000000000000000000000000081526004016105aa90610d35565b60405180910390fd5b8273ffffffffffffffffffffffffffffffffffffffff166105d38261034a565b73ffffffffffffffffffffffffffffffffffffffff1614610629576040517f08c379a000000000000000000000000000000000000000000000000000000000815260040161062090610dc7565b60405180910390fd5b6001600260008573ffffffffffffffffffffffffffffffffffffffff1673ffffffffffffffffffffffffffffffffffffffff16815260200190815260200160002060008282546106799190610e16565b925050819055506001600260008473ffffffffffffffffffffffffffffffffffffffff1673ffffffffffffffffffffffffffffffffffffffff16815260200190815260200160002060008282546106d09190610e4a565b92505081905550816001600083815260200190815260200160002060006101000a81548173ffffffffffffffffffffffffffffffffffffffff021916908373ffffffffffffffffffffffffffffffffffffffff160217905550808273ffffffffffffffffffffffffffffffffffffffff168473ffffffffffffffffffffffffffffffffffffffff167fddf252ad1be2c89b69c2b068fc378daa952ba7f163c4a11628f55a4df523b3ef60405160405180910390a4505050565b6000806001600084815260200190815260200160002060009054906101000a900473ffffffffffffffffffffffffffffffffffffffff169050600073ffffffffffffffffffffffffffffffffffffffff168173ffffffffffffffffffffffffffffffffffffffff161415915050919050565b600080fd5b60007fffffffff0000000000000000000000000000000000000000000000000000000082169050919050565b61083581610800565b811461084057600080fd5b50565b6000813590506108528161082c565b92915050565b60006020828403121561086e5761086d6107fb565b5b600061087c84828501610843565b91505092915050565b60008115159050919050565b61089a81610885565b82525050565b60006020820190506108b56000830184610891565b92915050565b600073ffffffffffffffffffffffffffffffffffffffff82169050919050565b60006108e6826108bb565b9050919050565b6108f6816108db565b811461090157600080fd5b50565b600081359050610913816108ed565b92915050565b6000819050919050565b61092c81610919565b811461093757600080fd5b50565b60008135905061094981610923565b92915050565b60008060408385031215610966576109656107fb565b5b600061097485828601610904565b92505060206109858582860161093a565b9150509250929050565b6000806000606084860312156109a8576109a76107fb565b5b60006109b686828701610904565b93505060206109c786828701610904565b92505060406109d88682870161093a565b9150509250925092565b6000602082840312156109f8576109f76107fb565b5b6000610a068482850161093a565b91505092915050565b610a18816108db565b82525050565b6000602082019050610a336000830184610a0f565b92915050565b600060208284031215610a4f57610a4e6107fb565b5b6000610a5d84828501610904565b91505092915050565b610a6f81610919565b82525050565b6000602082019050610a8a6000830184610a66565b92915050565b600082825260208201905092915050565b7f4572726f72202d20617070726f76616c20746f2063757272656e74206f776e6560008201527f7200000000000000000000000000000000000000000000000000000000000000602082015250565b6000610afd602183610a90565b9150610b0882610aa1565b604082019050919050565b60006020820190508181036000830152610b2c81610af0565b9050919050565b7f43757272656e742063616c6c6572206973206e6f7420746865206f776e65722060008201527f6f662074686520746f6b656e0000000000000000000000000000000000000000602082015250565b6000610b8f602c83610a90565b9150610b9a82610b33565b604082019050919050565b60006020820190508181036000830152610bbe81610b82565b9050919050565b7f4f776e657220717565727920666f72206e6f6e2d6578697374656e7420746f6b60008201527f656e000000000000000000000000000000000000000000000000000000000000602082015250565b6000610c21602283610a90565b9150610c2c82610bc5565b604082019050919050565b60006020820190508181036000830152610c5081610c14565b9050919050565b7f746f6b656e20646f6573206e6f74206578697374000000000000000000000000600082015250565b6000610c8d601483610a90565b9150610c9882610c57565b602082019050919050565b60006020820190508181036000830152610cbc81610c80565b9050919050565b7f4572726f72202d20455243373231205472616e7366657220746f20746865207a60008201527f65726f2061646472657373000000000000000000000000000000000000000000602082015250565b6000610d1f602b83610a90565b9150610d2a82610cc3565b604082019050919050565b60006020820190508181036000830152610d4e81610d12565b9050919050565b7f547279696e6720746f207472616e73666572206120746f6b656e20746865206160008201527f64647265737320646f6573206e6f74206f776e00000000000000000000000000602082015250565b6000610db1603383610a90565b9150610dbc82610d55565b604082019050919050565b60006020820190508181036000830152610de081610da4565b9050919050565b7f4e487b7100000000000000000000000000000000000000000000000000000000600052601160045260246000fd5b6000610e2182610919565b9150610e2c83610919565b925082821015610e3f57610e3e610de7565b5b828203905092915050565b6000610e5582610919565b9150610e6083610919565b9250827fffffffffffffffffffffffffffffffffffffffffffffffffffffffffffffffff03821115610e9557610e94610de7565b5b82820190509291505056fea2646970667358221220bcb6b975f3489b189fcf99eb766baa01fc3f15a92bc8b4a2daac90343a6d87d864736f6c634300080a0033",
  "immutableReferences": {},
  "source": "// SPDX-License-Identifier: MIT\npragma solidity ^0.8.0;\n\nimport './ERC165.sol';\nimport './interfaces/IERC721.sol';\n\n/*\n    building out the minting function:\n    a. nft to point to an address\n    b. keep track of the token ids\n    c. keep track of token owner addresses to token ids\n    d. keep track of how many tokens an owner address has\n    e. create an event that emits a transfer log -\n    contract address, where it is being minted to, the id\n*/\ncontract ERC721 is ERC165, IERC721 {\n    // mapping from token id to the owner\n    mapping(uint256 => address) private _tokenOwner;\n\n    // mapping from owner to number of owned tokens\n    mapping(address => uint256) private _OwnedTokensCount;\n\n    // mapping from token id to approved addresses\n    mapping(uint256 => address) private _tokenApprovals;\n\n    constructor() {\n        _registerInterface(bytes4(keccak256('balanceOf(bytes4)') ^ \n        keccak256('ownerOf(bytes4)') ^ keccak256('transferFrom(bytes4)')));\n    }\n    \n    function balanceOf(address _owner) public override view returns(uint256) {\n        require(_owner != address(0), 'Owner query for non-existent token');\n        return _OwnedTokensCount[_owner];\n    }\n\n    function ownerOf(uint256 _tokenId) public override view returns(address) {\n        address owner = _tokenOwner[_tokenId];\n        require(owner != address(0), 'Owner query for non-existent token');\n        return owner;\n    }\n\n    function _exists(uint256 tokenId) internal view returns(bool) {\n        // setting the address of nft owner to check mapping\n        // of the address from tokenOwner at the tokenId\n        address owner = _tokenOwner[tokenId];\n        // return truthiness the address is not zero\n        return owner != address(0);\n    }\n\n    function _mint(address to, uint256 tokenId) internal virtual {\n        // requires that the address is not zero\n        require(to != address(0), 'ERC721: minting to the zero address');\n        // requires that the token does not already exist\n        require(!_exists(tokenId), 'ERC721: token already minted');\n        // adding a new address with a token id for minting\n        _tokenOwner[tokenId] = to;\n        // keeping track of each address that is minting and adding one to the count\n        _OwnedTokensCount[to] += 1;\n\n        emit Transfer(address(0), to, tokenId);\n    }\n\n    function _transferFrom(address _from, address _to, uint256 _tokenId) internal {\n        require(_to != address(0), 'Error - ERC721 Transfer to the zero address');\n        require(ownerOf(_tokenId) == _from, 'Trying to transfer a token the address does not own');\n\n        _OwnedTokensCount[_from] -= 1;\n        _OwnedTokensCount[_to] += 1;\n        _tokenOwner[_tokenId] = _to;\n\n        emit Transfer(_from, _to, _tokenId);\n    }\n\n    function transferFrom(address _from, address _to, uint256 _tokenId) override public {\n        require(isApprovedOrOwner(msg.sender, _tokenId));\n        _transferFrom(_from, _to, _tokenId);\n    }\n\n    // require that the person approving is the owner\n    // approve an address to a token (tokenId)\n    // require that cant approve sending tokens of the owner to himself (current caller)\n    // update the map of the approval addresses\n    function approve(address _to, uint256 tokenId) public {\n        address owner = ownerOf(tokenId);\n        require(_to != owner, 'Error - approval to current owner');\n        require(msg.sender == owner, 'Current caller is not the owner of the token');\n        _tokenApprovals[tokenId] = _to;\n\n        emit Approval(owner, _to, tokenId);\n    }\n\n    function isApprovedOrOwner(address spender, uint256 tokenId) internal view returns(bool) {\n        require(_exists(tokenId), 'token does not exist');\n        address owner = ownerOf(tokenId);\n        return (spender == owner);\n    }\n}",
  "sourcePath": "/home/ton/Desktop/nft-marketplace-starter-kit-main/src/contracts/ERC721.sol",
  "compiler": {
    "name": "solc",
    "version": "0.8.10+commit.fc410830.Emscripten.clang"
  },
  "schemaVersion": "3.4.3",
  "updatedAt": "2021-12-06T03:07:19.321Z",
  "devdoc": {
    "kind": "dev",
    "methods": {},
    "version": 1
  },
  "userdoc": {
    "kind": "user",
    "methods": {},
    "version": 1
  }
}